:020000020000FC
:1000000050EC69EF74EA80EB99E9A2E9B2E8C8EF35
:10001000D0E8E0E90FEF00932400000000E0009337
:10002000270050932500109126001095D1F70C94CD
:1000300063006093250010912600109591F70C94B1
:100040006F007093250010912600109551F70C94C5
:100050007B008093250010912600109511F70C94D9
:10006000870090932500109126001095D1F60C94EE
:100070009300A093250010912600109591F60C9402
:100080009F00B093250010912600109551F60C9416
:10009000AB00C093250010912600109591F40C94AC
:1000A000B700D093250010912600109551F40C94C0
:1000B000C300E093250010912600109511F40C94D4
:1000C000CF000C9411004FEF3FEF24E12A95F1F798
:1000D0003A95D9F74A95C1F700000C9419004FEFF3
:1000E0003FEF24E12A95F1F73A95D9F74A95C1F700
:1000F00000000C9421004FEF3FEF24E12A95F1F727
:100100003A95D9F74A95C1F700000C9429004FEFB2
:100110003FEF24E12A95F1F73A95D9F74A95C1F7CF
:1001200000000C9431004FEF3FEF24E12A95F1F7E6
:100130003A95D9F74A95C1F700000C9439004FEF72
:100140003FEF24E12A95F1F73A95D9F74A95C1F79F
:1001500000000C9441004FEF3FEF24E12A95F1F7A6
:100160003A95D9F74A95C1F700000C9449004FEF32
:100170003FEF24E12A95F1F73A95D9F74A95C1F76F
:1001800000000C9451004FEF3FEF24E12A95F1F766
:100190003A95D9F74A95C1F700000C9459004FEFF2
:1001A0003FEF24E12A95F1F73A95D9F74A95C1F73F
:0601B00000000C94610048
:00000001FF
